:020000040800F2
:100000000050002029110008F90A0008010B00081F
:10001000090B0008110B0008190B00080000000074
:10002000000000000000000000000000210B00089C
:100030002D0B000800000000390B0008450B0008DC
:100040007111000871110008711100087111000888
:100050007111000871110008711100087111000878
:100060007111000871110008711100087111000868
:100070007111000871110008711100087111000858
:100080007111000871110008711100087111000848
:100090007111000871110008711100087111000838
:1000A0007111000871110008711100087111000828
:1000B000510B00087111000871110008711100083E
:1000C0007111000871110008711100087111000808
:1000D00071110008650B000871110008711100080A
:1000E0007111000871110008711100080000000072
:1000F0000000000000000000000000000000000000
:0C01000000000000000000005FF808F1A3
:10010C0010B5054C237833B9044B13B10448AFF345
:10011C0000800123237010BD20000020000000008F
:10012C006040000808B5034B1BB103490348AFF30B
:10013C00008008BD00000000240000206040000882
:10014C0080F0004002E000BF81F0004142001FBF80
:10015C005FEA410392EA030F7FEA226C7FEA236C89
:10016C006AD04FEA1262D2EB1363C1BFD21841407E
:10017C0048404140B8BF5B42192B88BF704710F014
:10018C00004F40F4000020F07F4018BF404211F0B7
:10019C00004F41F4000121F07F4118BF494292EA1F
:1001AC00030F3FD0A2F1010241FA03FC10EB0C004B
:1001BC00C3F1200301FA03F100F0004302D54942D8
:1001CC0060EB4000B0F5000F13D3B0F1807F06D385
:1001DC0040084FEA310102F10102FE2A51D2B1F17D
:1001EC00004F40EBC25008BF20F0010040EA030072
:1001FC007047490040EB0000013A28BFB0F5000FF2
:10020C00EDD2B0FA80FCACF1080CB2EB0C0200FAA7
:10021C000CF0AABF00EBC25052421843BCBFD040F6
:10022C001843704792F0000F81F4000106BF80F470
:10023C0000000132013BB5E74FEA41037FEA226C33
:10024C0018BF7FEA236C21D092EA030F04D092F0FE
:10025C00000F08BF0846704790EA010F1CBF002032
:10026C00704712F07F4F04D1400028BF40F000408F
:10027C00704712F100723CBF00F50000704700F0AF
:10028C00004343F0FE4040F4000070477FEA2262D6
:10029C0016BF08467FEA23630146420206BF5FEAA7
:1002AC00412390EA010F40F4800070474FF00003A7
:1002BC0004E000BF10F0004348BF40425FEA000C6E
:1002CC0008BF704743F0964301464FF000001CE016
:1002DC0050EA010208BF70474FF000030AE000BF6C
:1002EC0050EA010208BF704711F0004302D54042AA
:1002FC0061EB41015FEA010C02BF8446014600201C
:10030C0043F0B64308BFA3F18053A3F50003BCFA36
:10031C008CF2083AA3EBC25310DB01FA02FC6344E3
:10032C0000FA02FCC2F12002BCF1004F20FA02F2EA
:10033C0043EB020008BF20F00100704702F12002DD
:10034C0001FA02FCC2F1200250EA4C0021FA02F23E
:10035C0043EB020008BF20EADC7070474FF0FF0C43
:10036C001CEAD0521EBF1CEAD15392EA0C0F93EA3E
:10037C000C0F6FD01A4480EA010C400218BF5FEAE0
:10038C0041211ED04FF0006343EA501043EA511153
:10039C00A0FB01310CF00040B1F5000F3EBF49004D
:1003AC0041EAD3715B0040EA010062F17F02FD2A51
:1003BC001DD8B3F1004F40EBC25008BF20F0010034
:1003CC00704790F0000F0CF0004C08BF49024CEA4B
:1003DC00502040EA51207F3AC2BFD2F1FF0340EADD
:1003EC00C250704740F400004FF00003013A5DDC4E
:1003FC0012F1190FDCBF00F000407047C2F100028F
:10040C00410021FA02F1C2F1200200FA02FC5FEA7B
:10041C00310040F1000053EA4C0308BF20EADC70C5
:10042C00704792F0000F00F0004C02BF400010F437
:10043C00000F013AF9D040EA0C0093F0000F01F0E4
:10044C00004C02BF490011F4000F013BF9D041EA06
:10045C000C018FE70CEAD15392EA0C0F18BF93EA08
:10046C000C0F0AD030F0004C18BF31F0004CD8D132
:10047C0080EA010000F00040704790F0000F17BFB9
:10048C0090F0004F084691F0000F91F0004F14D0FF
:10049C0092EA0C0F01D142020FD193EA0C0F03D157
:1004AC004B0218BF084608D180EA010000F000405A
:1004BC0040F0FE4040F40000704740F0FE4040F435
:1004CC00400070474FF0FF0C1CEAD0521EBF1CEAD4
:1004DC00D15392EA0C0F93EA0C0F69D0A2EB0302F2
:1004EC0080EA010C49024FEA402037D04FF080538C
:1004FC0043EA111143EA10130CF000408B4238BF51
:10050C005B0042F17D024FF4000C8B4224BF5B1A5E
:10051C0040EA0C00B3EB510F24BFA3EB510340EAAC
:10052C005C00B3EB910F24BFA3EB910340EA9C005A
:10053C00B3EBD10F24BFA3EBD10340EADC001B01CA
:10054C0018BF5FEA1C1CE0D1FD2A3FF650AF8B426E
:10055C0040EBC25008BF20F0010070470CF0004C7B
:10056C004CEA50207F32C2BFD2F1FF0340EAC250A6
:10057C00704740F400004FF00003013A37E792F067
:10058C00000F00F0004C02BF400010F4000F013AC5
:10059C00F9D040EA0C0093F0000F01F0004C02BFC0
:1005AC00490011F4000F013BF9D041EA0C0195E729
:1005BC000CEAD15392EA0C0F08D142027FF47DAFC2
:1005CC0093EA0C0F7FF470AF084676E793EA0C0FB2
:1005DC0004D14B023FF44CAF08466EE730F0004CB0
:1005EC0018BF31F0004CCAD130F000427FF45CAF40
:1005FC0031F000437FF43CAF5FE700BF4FF0FF3CAE
:10060C0006E000BF4FF0010C02E000BF4FF0010C00
:10061C004DF804CD4FEA40024FEA41037FEA226CC9
:10062C0018BF7FEA236C11D001B052EA530C18BFEB
:10063C0090EA010F58BFB2EB030088BFC81738BF50
:10064C006FEAE17018BF40F0010070477FEA226C3E
:10065C0002D15FEA402C05D17FEA236CE4D15FEA3A
:10066C00412CE1D05DF8040B704700BF844608466E
:10067C006146FFE70FB5FFF7C9FF002848BF10F12F
:10068C00000F0FBD4DF808EDFFF7F4FF0CBF012074
:10069C0000205DF808FB00BF4DF808EDFFF7EAFFFE
:1006AC0034BF012000205DF808FB00BF4DF808EDB9
:1006BC00FFF7E0FF94BF012000205DF808FB00BFAE
:1006CC004DF808EDFFF7D2FF94BF012000205DF834
:1006DC0008FB00BF4DF808EDFFF7C8FF34BF012041
:1006EC0000205DF808FB00BF4FEA4002B2F1FE4F5C
:1006FC000FD34FF09E03B3EB12620DD94FEA0023D8
:10070C0043F0004310F0004F23FA02F018BF4042B0
:10071C0070474FF00000704712F1610F01D1420297
:10072C0005D110F0004008BF6FF0004070474FF04B
:10073C000000704780B588B000AF07F110030022AD
:10074C001A605A609A60DA6062B600BF254B9B69EA
:10075C00244A43F010039361224B9B6903F010036E
:10076C00FB60FB681F4B9B691E4A43F0200393619F
:10077C001C4B9B6903F02003BB60BB68194B9B6946
:10078C00184A43F004039361164B9B6903F004036E
:10079C007B607B6801233B6100237B610023BB6191
:1007AC0007F110031946104800F024FF01224FF402
:1007BC0000510E4801F0A2F84FF400533B610123A5
:1007CC007B610023BB610223FB6107F11003194617
:1007DC00064800F00FFF00237B6100BF2037BD46A9
:1007EC0080BD00BF00100240000801400010014015
:1007FC0080B582B000AF00F0B7FC00F03FF8FFF717
:10080C0099FF00F0B9F900F009FA00F073FB002130
:10081C00154801F035FD0021144801F02BFE03466C
:10082C00002B01D000F05CF9104801F08FFC03465E
:10083C00002B01D000F054F901220D490D4802F0B3
:10084C004EFE00F089F878600B4B1B681846FFF7DA
:10085C004BFF0346184600F04DF84FF4FA7000F0C9
:10086C00E5FC00BFEDE700BF64000020AC000020F9
:10087C003C000020F40000200000002080B590B067
:10088C0000AF07F1180328220021184603F0B6FB2D
:10089C003B1D00221A605A609A60DA601A610223CA
:1008AC00BB610123BB621023FB6200237B6307F156
:1008BC001803184601F03AF80346002B01D000F05B
:1008CC000FF90F237B600023BB600023FB60002328
:1008DC003B6100237B613B1D0021184601F0A8FA07
:1008EC000346002B01D000F0FBF800BF4037BD469B
:1008FC0080BD000080B485B000AF78603223FB73FC
:10090C00124B1B78012B07D17B68DA0F13445B1059
:10091C00DBB23233FB7307E07B68DA0F13445B10F6
:10092C005B42DBB23233FB73FB7B094AD268013288
:10093C0003FB02F2064B1B680649A1FB021252098B
:10094C005A6300BF1437BD4680BC704710000020AE
:10095C00640000201F85EB51B0B500AF574B1C68ED
:10096C00574B1A6813461B019B1A9B001846FFF73E
:10097C009DFC034619462046FFF7E6FB03461A4644
:10098C00504B1A60504B5C68504B1B68504A1268B5
:10099C0011461846FFF796FD03461A464D4B1B6849
:1009AC0019461046FFF7D2FB03461A46454B1B6807
:1009BC0019461046FFF7D2FC034619462046FFF7AE
:1009CC00C5FB03461C46444B1B68414A1268114642
:1009DC001846FFF7C3FC03461A463E4B1B681946E4
:1009EC001046FFF7B1FB03461D46384B1B681946F2
:1009FC001846FFF7ABFB03461A46354B1B681946E6
:100A0C001046FFF75FFD034619462846FFF79CFB8F
:100A1C0003461A462B4B5B6819461046FFF79EFCA3
:100A2C00034619462046FFF791FB03461C46274B0D
:100A3C001B68274A126811461846FFF743FD034608
:100A4C001A46204B9B6819461046FFF787FC034655
:100A5C0019462046FFF77AFB03461A461A4B1A60D2
:100A6C00194B1B68184A5360164B5B68154A936008
:100A7C00144B1B68134A5360134B1B6817491846D9
:100A8C00FFF71EFE0346002B02D00F4B134A1A60D1
:100A9C000D4B1B684FF000011846FFF7FDFD034698
:100AAC00002B03D0084B4FF000021A60064B1B685A
:100ABC001846FFF719FE03461846B0BD400000204B
:100ACC00600000204400002050000020080000209E
:100ADC000C00002000000020040000200000C84290
:100AEC0080B400AF72B600BF00BFFDE780B400AFAA
:100AFC0000BFFDE780B400AF00BFFDE780B400AFDE
:100B0C0000BFFDE780B400AF00BFFDE780B400AFCD
:100B1C0000BFFDE780B400AF00BFBD4680BC70478E
:100B2C0080B400AF00BFBD4680BC704780B400AF3E
:100B3C0000BFBD4680BC704780B500AF00F05AFBCB
:100B4C0000BF80BD80B500AF024801F09FFD00BF23
:100B5C0080BD00BFAC00002080B500AF024802F0A1
:100B6C00E3FC00BF80BD00BFF400002080B400AFE8
:100B7C0000BFBD4680BC704780B586B000AF07F1A2
:100B8C00100300221A605A603B4600221A605A6019
:100B9C009A60DA60204B4FF080421A601E4B0022A4
:100BAC005A601D4B00229A601B4B4FF6FF72DA60A5
:100BBC00194B00221A61184B00229A61164801F059
:100BCC0001FC0346002B01D0FFF78AFF00233B6199
:100BDC0000237B6107F1100319460F4802F034FB28
:100BEC000346002B01D0FFF77BFF00233B60012362
:100BFC007B600023BB600023FB603B460022194650
:100C0C00054801F033FE0346002B01D0FFF768FFC7
:100C1C0000BF1837BD4680BDAC00002080B58AB03F
:100C2C0000AF07F1200300221A605A603B1D00221E
:100C3C001A605A609A60DA601A615A619A61214BA3
:100C4C00214A1A601F4B47225A601E4B00229A60A1
:100C5C001C4B6322DA601B4B00221A61194B0022D9
:100C6C009A61184801F0BCFA0346002B01D0FFF73B
:100C7C0037FF00233B6200237B6207F120031946F8
:100C8C00104802F0E1FA0346002B01D0FFF728FFD1
:100C9C0060237B600023BB600023FB6000237B612F
:100CAC003B1D00221946074801F07CFE0346002B31
:100CBC0001D0FFF715FF034800F058F800BF2837A4
:100CCC00BD4680BD640000200004004080B485B0A7
:100CDC0000AF154B9B69144A43F001039361124B0F
:100CEC009B6903F00103BB60BB680F4BDB690E4AC9
:100CFC0043F08053D3610C4BDB6903F080537B6072
:100D0C007B680A4B5B68FB60FB6823F0E063FB606D
:100D1C00FB6843F08063FB60044AFB68536000BFD0
:100D2C001437BD4680BC70470010024000000140E3
:100D3C0080B485B000AF78607B681B68094A934229
:100D4C000BD1094BDB69084A43F00203D361064B14
:100D5C00DB6903F00203FB60FB6800BF1437BD4680
:100D6C0080BC7047000400400010024080B588B081
:100D7C0000AF786007F1100300221A605A609A6085
:100D8C00DA607B681B680F4A934217D10E4B9B6944
:100D9C000D4A43F0040393610B4B9B6903F004036E
:100DAC00FB60FB6840233B6102237B610223FB61F8
:100DBC0007F110031946054800F01CFC00BF203752
:100DCC00BD4680BD000400400010024000080140F8
:100DDC0080B584B000AF78607B681B68B3F1804F3E
:100DEC0038D17B681B7F012B34D10021786801F04E
:100DFC009BFE0346194A1360184B1A68184B1B6864
:100E0C009A4205D3154B1A68154B1B68D31A06E08A
:100E1C00124B1A68124B1B68D31A03F58033FB6014
:100E2C0001F04EF901467B685B680133FA6802FBFE
:100E3C0003F3B1FBF3F30B4A1360084B1B68084A2E
:100E4C001360084B1B681846FFF730FA0346184628
:100E5C0000F00AF800BF1037BD4680BD5C000020D2
:100E6C00580000206000002080B586B000AF78608C
:100E7C001B233B731D4B1B787B737B683B610A23E5
:100E8C003B7507F10C014FF0FF330122184802F0BB
:100E9C009BFA07F10C03591C4FF0FF330122144845
:100EAC0002F092FA07F10C03191D4FF0FF330422E4
:100EBC000F4802F089FA07F10C0303F108014FF017
:100ECC00FF3301220A4802F07FFA084B1B780133EA
:100EDC00DAB2064B1A70054B1B78FF2B02D1034B71
:100EEC0000221A7000BF1837BD4680BDC801002013
:100EFC00F400002080B500AF114B124A1A60104B61
:100F0C004FF416525A600E4B00229A600C4B002282
:100F1C00DA600B4B00221A61094B0C225A61084B08
:100F2C0000229A61064B0022DA61054802F0FCF9B6
:100F3C000346002B01D0FFF7D3FD00BF80BD00BFDF
:100F4C00F40000200038014080B588B000AF786014
:100F5C0007F1100300221A605A609A60DA607B680D
:100F6C001B68204A934239D11F4B9B691E4A43F49C
:100F7C00804393611C4B9B6903F48043FB60FB68CB
:100F8C00194B9B69184A43F004039361164B9B69F8
:100F9C0003F00403BB60BB684FF400733B61022396
:100FAC007B610323FB6107F1100319460F4800F026
:100FBC0021FB4FF480633B6100237B610023BB6109
:100FCC0007F110031946094800F014FB0022002118
:100FDC00252000F026FA252000F03FFA00BF20372C
:100FEC00BD4680BD003801400010024000080140A1
:100FFC0080B582B000AF78607B681B683D4A934235
:10100C006FD13D4B1B781A463C4B19783C4B99548D
:10101C00394B1B780133DAB2374B1A70374B1B78CC
:10102C000A2B5ED1344B1B78063B354AD25C354BD0
:10103C001A70314B1B78053B314A13441B681A4616
:10104C00304B5A602F4B1B78643B0E2B41D801A2BE
:10105C0052F823F0B7100008DF100008DF1000086A
:10106C00CB100008DF100008BF100008DF100008CC
:10107C00DF100008DF100008DF100008DF10000888
:10108C00DF1000089D100008DF100008E7100008B2
:10109C001C4B5B681846FFF727FB03461846FFF707
:1010AC0009F90346184A136018E01848FFF7DCFEEC
:1010BC0014E0144B5B681846FFF7D6FE0EE0114B9C
:1010CC005B681846FFF710FB0346DAB2104B1A7038
:1010DC0004E01048FFF7C8FE00E000BF064B0022FA
:1010EC001A70012205490C4802F0F9F900BF0837C3
:1010FC00BD4680BD00380140440100203C0000206A
:10110C00480100203C01002000000020000040406D
:10111C0010000020000080BFF4000020FFF726FD27
:10112C000B480C490C4A002302E0D458C450043339
:10113C00C4188C42F9D3094A094C002301E013600E
:10114C000432A242FBD302F061FFFFF751FB704760
:10115C000000002020000020AC40000820000020EF
:10116C00D0010020FEE7000080B500AF084B1B68E3
:10117C00074A43F010031360032000F047F90F20D7
:10118C0000F008F8FFF7A2FD0023184680BD00BF51
:10119C000020024080B582B000AF7860124B1A6814
:1011AC00124B1B7819464FF47A73B3FBF1F3B2FB75
:1011BC00F3F3184600F05FF90346002B01D001232E
:1011CC000EE07B680F2B0AD8002279684FF0FF30B5
:1011DC0000F027F9064A7B681360002300E0012326
:1011EC0018460837BD4680BD140000201C000020A6
:1011FC001800002080B400AF054B1B781A46054B35
:10120C001B681344034A136000BFBD4680BC704783
:10121C001C000020CC01002080B400AF024B1B68E6
:10122C001846BD4680BC7047CC01002080B584B008
:10123C0000AF7860FFF7F0FFB8607B68FB60FB687D
:10124C00B3F1FF3F05D00A4B1B781A46FB681344D9
:10125C00FB6000BFFFF7E0FF0246BB68D31AFA68D9
:10126C009A42F7D800BF00BF1037BD4680BD00BF03
:10127C001C00002080B485B000AF78607B6803F060
:10128C000703FB600C4BDB68BB60BA684FF6FF03CF
:10129C001340BB60FB681A02BB68134343F0BF6387
:1012AC0043F40033BB60044ABB68D36000BF1437FF
:1012BC00BD4680BC704700BF00ED00E080B400AFBD
:1012CC00044BDB681B0A03F007031846BD4680BCC1
:1012DC00704700BF00ED00E080B483B000AF034660
:1012EC00FB7197F90730002B0BDBFB7903F01F0226
:1012FC00064997F907305B09012000FA02F241F820
:10130C00232000BF0C37BD4680BC704700E100E0D5
:10131C0080B483B000AF03463960FB7197F9073096
:10132C00002B0ADB3B68DAB20C4997F90730120143
:10133C00D2B20B4483F800230AE03B68DAB20849C6
:10134C00FB7903F00F03043B1201D2B20B441A7663
:10135C0000BF0C37BD4680BC704700BF00E100E009
:10136C0000ED00E080B489B000AFF860B9607A603D
:10137C00FB6803F00703FB61FB69C3F10703042B54
:10138C0028BF0423BB61FB690433062B02D9FB691C
:10139C00033B00E000237B614FF0FF32BB6902FA94
:1013AC0003F3DA43BB681A407B699A404FF0FF3174
:1013BC007B6901FA03F3D9437B680B40134318464E
:1013CC002437BD4680BC704780B582B000AF7860D2
:1013DC007B68013BB3F1807F01D301230FE00A4A04
:1013EC007B68013B53600F214FF0FF30FFF790FFFC
:1013FC00054B00229A60044B07221A600023184602
:10140C000837BD4680BD00BF10E000E080B582B05B
:10141C0000AF78607868FFF72DFF00BF0837BD4636
:10142C0080BD80B586B000AF0346B9607A60FB73AF
:10143C0000237B61FFF742FF78617A68B9687869AD
:10144C00FFF790FF024697F90F3011461846FFF749
:10145C005FFF00BF1837BD4680BD80B582B000AFBE
:10146C000346FB7197F907301846FFF735FF00BFAD
:10147C000837BD4680BD80B582B000AF7860786813
:10148C00FFF7A2FF034618460837BD4680BD80B45F
:10149C0085B000AF78600023FB737B6893F8213034
:1014AC00DBB2022B08D07B6804229A637B68002293
:1014BC0083F82020012320E07B681B681A687B6876
:1014CC001B6822F00E021A607B681B681A687B6826
:1014DC001B6822F001021A607B681A6C7B68DB6B5C
:1014EC00012101FA02F25A607B68012283F8212063
:1014FC007B68002283F82020FB7B18461437BD46FE
:10150C0080BC704780B584B000AF78600023FB735B
:10151C007B6893F82130DBB2022B05D07B68042268
:10152C009A630123FB7351E07B681B681A687B6824
:10153C001B6822F00E021A607B681B681A687B68B5
:10154C001B6822F001021A607B681B68224A9342D6
:10155C0029D07B681B68214A934222D07B681B6888
:10156C001F4A93421AD07B681B681E4A934212D0C2
:10157C007B681B681C4A93420AD07B681B681B4A19
:10158C00934202D14FF480130EE04FF080730BE0C6
:10159C004FF4803308E04FF4805305E04FF4807330
:1015AC0002E0102300E00123114A53607B68012202
:1015BC0083F821207B68002283F820207B685B6BFA
:1015CC00002B03D07B685B6B78689847FB7B1846D5
:1015DC001037BD4680BD00BF080002401C00024011
:1015EC003000024044000240580002406C000240AF
:1015FC000000024080B48BB000AF786039600023EB
:10160C007B6200233B6269E101227B6A02FA03F3ED
:10161C00FB613B681B68FA691340BB61BA69FB69E3
:10162C009A4240F058813B685B689A4A93425ED07C
:10163C00984A934275D8984A934258D0964A934206
:10164C006FD8964A934252D0944A934269D8944A9E
:10165C0093424CD0924A934263D8924A934246D0DA
:10166C00904A93425DD8122B2AD8122B59D801A23A
:10167C0052F823F0FB160008D5160008E7160008F0
:10168C00291700082F1700082F1700082F1700081C
:10169C002F1700082F1700082F1700082F17000806
:1016AC002F1700082F1700082F1700082F170008F6
:1016BC002F1700082F170008DD160008F116000878
:1016CC00794A934213D02CE03B68DB683B6229E0FB
:1016DC003B68DB6804333B6224E03B68DB6808331F
:1016EC003B621FE03B68DB680C333B621AE03B68F3
:1016FC009B68002B02D104233B6213E03B689B6880
:10170C00012B05D108233B627B68FA691A6109E059
:10171C0008233B627B68FA695A6103E000233B6251
:10172C0000E000BFBB69FF2B01D87B6801E07B6840
:10173C0004337B61BB69FF2B02D87B6A9B0002E000
:10174C007B6A083B9B003B617B691A680F213B69F4
:10175C0001FA03F3DB431A40396A3B6901FA03F3DC
:10176C001A437B691A603B685B6803F08053002B5B
:10177C0000F0B1804D4B9B694C4A43F001039361DF
:10178C004A4B9B6903F00103BB60BB68484A7B6A08
:10179C009B08023352F82330FB607B6A03F003038F
:1017AC009B000F2202FA03F3DB43FA681340FB6041
:1017BC007B68404A934213D07B683F4A93420DD0DA
:1017CC007B683E4A934207D07B683D4A934201D1E5
:1017DC00032306E0042304E0022302E0012300E0DB
:1017EC0000237A6A02F0030292009340FA681343D2
:1017FC00FB602F497B6A9B080233FA6841F823206F
:10180C003B685B6803F48013002B06D02D4B9A6861
:10181C002C49BB6913438B6006E02A4B9A68BB6961
:10182C00DB43284913408B603B685B6803F400136F
:10183C00002B06D0234BDA682249BB691343CB60DB
:10184C0006E0204BDA68BB69DB431E491340CB60D2
:10185C003B685B6803F40033002B06D0194B5A68C5
:10186C001849BB6913434B6006E0164B5A68BB69B9
:10187C00DB43144913404B603B685B6803F48033D3
:10188C00002B21D00F4B1A680E49BB6913430B6018
:10189C0021E000BF000032100000311000002210C7
:1018AC000000211000001210000011100010024066
:1018BC000000014000080140000C014000100140F4
:1018CC0000140140000401400B4B1A68BB69DB4358
:1018DC00094913400B607B6A01337B623B681A68D1
:1018EC007B6A22FA03F3002B7FF48EAE00BF00BF9D
:1018FC002C37BD4680BC70470004014080B483B0D7
:10190C0000AF78600B467B8013467B707B78002B96
:10191C0003D07A887B681A6103E07B881A047B68A1
:10192C001A6100BF0C37BD4680BC704780B586B0CD
:10193C0000AF78607B68002B01D1012372E27B68D9
:10194C001B6803F00103002B00F08780924B5B684F
:10195C0003F00C03042B0CD08F4B5B6803F00C03CF
:10196C00082B12D18C4B5B6803F48033B3F5803FAA
:10197C000BD1894B1B6803F40033002B6CD07B68B4
:10198C005B68002B68D101234CE27B685B68B3F584
:10199C00803F06D1804B1B687F4A43F48033136031
:1019AC002EE07B685B68002B0CD17B4B1B687A4A62
:1019BC0023F480331360784B1B68774A23F480231D
:1019CC0013601DE07B685B68B3F5A02F0CD1724BE4
:1019DC001B68714A43F4802313606F4B1B686E4A7B
:1019EC0043F4803313600BE06B4B1B686A4A23F49F
:1019FC0080331360684B1B68674A23F480231360A1
:101A0C007B685B68002B13D0FFF706FC386108E09D
:101A1C00FFF702FC02463B69D31A642B01D903235E
:101A2C0000E25D4B1B6803F40033002BF0D014E094
:101A3C00FFF7F2FB386108E0FFF7EEFB02463B696B
:101A4C00D31A642B01D90323ECE1534B1B6803F429
:101A5C000033002BF0D100E000BF7B681B6803F063
:101A6C000203002B63D04C4B5B6803F00C03002B80
:101A7C000BD0494B5B6803F00C03082B1CD1464B75
:101A8C005B6803F48033002B16D1434B1B6803F0C7
:101A9C000203002B05D07B681B69012B01D00123AD
:101AAC00C0E13D4B1B6823F0F8027B685B69DB00EF
:101ABC00394913430B603AE07B681B69002B20D03B
:101ACC00364B01221A60FFF7A7FB386108E0FFF7DD
:101ADC00A3FB02463B69D31A022B01D90323A1E1D4
:101AEC002D4B1B6803F00203002BF0D02A4B1B6814
:101AFC0023F0F8027B685B69DB00274913430B601A
:101B0C0015E0264B00221A60FFF786FB386108E0CF
:101B1C00FFF782FB02463B69D31A022B01D9032340
:101B2C0080E11D4B1B6803F00203002BF0D17B6896
:101B3C001B6803F00803002B3AD07B689B69002BD1
:101B4C0019D0174B01221A60FFF766FB386108E0C9
:101B5C00FFF762FB02463B69D31A022B01D9032320
:101B6C0060E10D4B5B6A03F00203002BF0D0012007
:101B7C0000F0CEFA1CE00A4B00221A60FFF74CFB77
:101B8C0038610FE0FFF748FB02463B69D31A022B82
:101B9C0008D9032346E100BF001002400000424276
:101BAC0080044242924B5B6A03F00203002BE9D1A2
:101BBC007B681B6803F00403002B00F0A680002355
:101BCC00FB758B4BDB6903F08053002B0DD1884BDD
:101BDC00DB69874A43F08053D361854BDB6903F0A3
:101BEC008053BB60BB680123FB75824B1B6803F4FD
:101BFC008073002B18D17F4B1B687E4A43F4807393
:101C0C001360FFF709FB386108E0FFF705FB02469C
:101C1C003B69D31A642B01D9032303E1754B1B6871
:101C2C0003F48073002BF0D07B68DB68012B06D1AA
:101C3C006F4B1B6A6E4A43F0010313622DE07B6805
:101C4C00DB68002B0CD16A4B1B6A694A23F0010339
:101C5C001362674B1B6A664A23F0040313621CE091
:101C6C007B68DB68052B0CD1614B1B6A604A43F027
:101C7C00040313625E4B1B6A5D4A43F0010313625B
:101C8C000BE05B4B1B6A5A4A23F001031362584B5F
:101C9C001B6A574A23F0040313627B68DB68002B32
:101CAC0015D0FFF7B9FA38610AE0FFF7B5FA02462A
:101CBC003B69D31A41F28832934201D90323B1E034
:101CCC004B4B1B6A03F00203002BEED014E0FFF722
:101CDC00A3FA38610AE0FFF79FFA02463B69D31A70
:101CEC0041F28832934201D903239BE0404B1B6A9B
:101CFC0003F00203002BEED1FB7D012B05D13C4BF5
:101D0C00DB693B4A23F08053D3617B68DB69002B92
:101D1C0000F08780364B5B6803F00C03082B61D016
:101D2C007B68DB69022B46D1334B00221A60FFF72C
:101D3C0073FA386108E0FFF76FFA02463B69D31A71
:101D4C00022B01D903236DE0294B1B6803F00073B0
:101D5C00002BF0D17B681B6AB3F5803F08D1244B74
:101D6C005B6823F400327B689B68214913434B600A
:101D7C001F4B5B6823F474127B68196A7B685B6A7F
:101D8C000B431B4913434B601B4B01221A60FFF79B
:101D9C0043FA386108E0FFF73FFA02463B69D31A71
:101DAC00022B01D903233DE0114B1B6803F0007398
:101DBC00002BF0D035E0104B00221A60FFF72CFA04
:101DCC00386108E0FFF728FA02463B69D31A022B68
:101DDC0001D9032326E0064B1B6803F00073002B8C
:101DEC00F0D11EE07B68DB69012B07D1012319E0E0
:101DFC000010024000700040600042420B4B5B68D8
:101E0C00FB60FB6803F480327B681B6A9A4206D144
:101E1C00FB6803F470127B685B6A9A4201D0012361
:101E2C0000E0002318461837BD4680BD0010024064
:101E3C0080B584B000AF786039607B68002B01D12D
:101E4C000123D0E06A4B1B6803F007033A689A42FF
:101E5C0010D9674B1B6823F0070265493B68134395
:101E6C000B60634B1B6803F007033A689A4201D07E
:101E7C000123B8E07B681B6803F00203002B20D021
:101E8C007B681B6803F00403002B05D0594B5B687F
:101E9C00584A43F4E06353607B681B6803F0080303
:101EAC00002B05D0534B5B68524A43F4605353608C
:101EBC00504B5B6823F0F0027B689B684D491343E1
:101ECC004B607B681B6803F00103002B40D07B68E0
:101EDC005B68012B07D1474B1B6803F40033002BC5
:101EEC0015D101237FE07B685B68022B07D1414B46
:101EFC001B6803F00073002B09D1012373E03D4BE9
:101F0C001B6803F00203002B01D101236BE0394B5A
:101F1C005B6823F003027B685B68364913434B60B4
:101F2C00FFF77AF9F8600AE0FFF776F90246FB68EA
:101F3C00D31A41F28832934201D9032353E02D4B3B
:101F4C005B6803F00C027B685B689B009A42EBD1E8
:101F5C00274B1B6803F007033A689A4210D2244BB4
:101F6C001B6823F0070222493B6813430B60204B8C
:101F7C001B6803F007033A689A4201D0012332E050
:101F8C007B681B6803F00403002B08D0194B5B68BB
:101F9C0023F4E0627B68DB68164913434B607B6873
:101FAC001B6803F00803002B09D0124B5B6823F469
:101FBC0060527B681B69DB000E4913434B6000F0D9
:101FCC0021F802460B4B5B681B0903F00F030A490F
:101FDC00CB5C22FA03F3094A1360094B1B681846C1
:101FEC00FFF7D8F8002318461037BD4680BD00BF58
:101FFC00002002400010024078400008140000202D
:10200C001800002080B487B000AF0023FB600023D1
:10201C00BB6000237B6100237B6000233B611E4B74
:10202C005B68FB60FB6803F00C03042B02D0082BED
:10203C0003D027E0194B3B6127E0FB689B0C03F0B6
:10204C000F03174AD35C7B60FB6803F48033002BCF
:10205C0010D0114B5B685B0C03F00103114AD35C8D
:10206C00BB607B680D4A03FB02F2BB68B2FBF3F367
:10207C007B6104E07B680C4A02FB03F37B617B69A8
:10208C003B6102E0054B3B6100BF3B6918461C37C6
:10209C00BD4680BC704700BF0010024000127A00A1
:1020AC0090400008A040000800093D0080B400AF3B
:1020BC00024B1B681846BD4680BC704714000020BC
:1020CC0080B500AFFFF7F2FF0246054B5B681B0AB9
:1020DC0003F007030349CB5C22FA03F3184680BDD7
:1020EC00001002408840000880B500AFFFF7DEFF0B
:1020FC000246054B5B68DB0A03F007030349CB5C24
:10210C0022FA03F3184680BD0010024088400008F4
:10211C0080B485B000AF78600A4B1B680A4AA2FBFA
:10212C0003235B0A7A6802FB03F3FB6000BFFB68C6
:10213C005A1EFA60002BF9D100BF00BF1437BD4600
:10214C0080BC704714000020D34D621080B485B061
:10215C0000AF78607B6893F83D30DBB2012B01D087
:10216C00012332E07B68022283F83D207B681B68E8
:10217C00184A93420ED07B681B68B3F1804F09D08C
:10218C007B681B68144A934204D07B681B68134A13
:10219C00934211D17B681B689B6803F00703FB60BB
:1021AC00FB68062B10D07B681B681A687B681B6861
:1021BC0042F001021A6007E07B681B681A687B68B2
:1021CC001B6842F001021A60002318461437BD4602
:1021DC0080BC7047002C0140000400400008004007
:1021EC0080B582B000AF78607B68002B01D10123F1
:1021FC0041E07B6893F83D30DBB2002B06D17B6865
:10220C00002283F83C207868FEF792FD7B6802225E
:10221C0083F83D207B681A687B68043319461046A6
:10222C0000F0EAFC7B68012283F846207B680122DF
:10223C0083F83E207B68012283F83F207B680122D3
:10224C0083F840207B68012283F841207B680122BF
:10225C0083F842207B68012283F843207B680122AB
:10226C0083F844207B68012283F845207B68012297
:10227C0083F83D20002318460837BD4680BD00007A
:10228C0080B584B000AF786039603B68002B09D111
:10229C007B6893F83E30DBB2012B14BF0123002383
:1022AC00DBB222E03B68042B09D17B6893F83F300A
:1022BC00DBB2012B14BF01230023DBB215E03B681A
:1022CC00082B09D17B6893F84030DBB2012B14BF8B
:1022DC0001230023DBB208E07B6893F84130DBB2CA
:1022EC00012B14BF01230023DBB2002B01D00123EF
:1022FC005EE03B68002B04D17B68022283F83E2011
:10230C0013E03B68042B04D17B68022283F83F2046
:10231C000BE03B68082B04D17B68022283F8402039
:10232C0003E07B68022283F841207B681B68012252
:10233C003968184600F063FF7B681B681E4A93429D
:10234C0007D17B681B685A6C7B681B6842F400429F
:10235C005A647B681B68184A93420ED07B681B68D2
:10236C00B3F1804F09D07B681B68144A934204D0A8
:10237C007B681B68124A934211D17B681B689B686F
:10238C0003F00703FB60FB68062B10D07B681B680F
:10239C001A687B681B6842F001021A6007E07B68D0
:1023AC001B681A687B681B6842F001021A600023E4
:1023BC0018461037BD4680BD002C0140000400407B
:1023CC000008004080B582B000AF78607B68002BBD
:1023DC0001D1012341E07B6893F83D30DBB2002B47
:1023EC0006D17B68002283F83C20786800F039F82D
:1023FC007B68022283F83D207B681A687B68043373
:10240C001946104600F0F8FB7B68012283F8462041
:10241C007B68012283F83E207B68012283F83F20F1
:10242C007B68012283F840207B68012283F84120DD
:10243C007B68012283F842207B68012283F84320C9
:10244C007B68012283F844207B68012283F84520B5
:10245C007B68012283F83D20002318460837BD46CF
:10246C0080BD80B483B000AF786000BF0C37BD4630
:10247C0080BC704780B584B000AF786039600023B1
:10248C00FB733B68002B04D17B6893F83E30DBB2C6
:10249C0013E03B68042B04D17B6893F83F30DBB22C
:1024AC000BE03B68082B04D17B6893F84030DBB21F
:1024BC0003E07B6893F84130DBB2BB733B68002BC5
:1024CC0004D17B6893F84230DBB213E03B68042BF9
:1024DC0004D17B6893F84330DBB20BE03B68082BEC
:1024EC0004D17B6893F84430DBB203E07B6893F84B
:1024FC004530DBB27B73BB7B012B02D17B7B012B89
:10250C0001D00123B8E03B68002B04D17B68022288
:10251C0083F83E2013E03B68042B04D17B68022235
:10252C0083F83F200BE03B68082B04D17B68022228
:10253C0083F8402003E07B68022283F841203B684B
:10254C00002B04D17B68022283F8422013E03B6805
:10255C00042B04D17B68022283F843200BE03B68F8
:10256C00082B04D17B68022283F8442003E07B68AB
:10257C00022283F845203B680C2B41D801A252F86B
:10258C0023F000BFC52500080D2600080D26000805
:10259C000D260008D72500080D2600080D2600087A
:1025AC000D260008E92500080D2600080D26000858
:1025BC000D260008FB2500087B681B68DA687B6821
:1025CC001B6842F00202DA601DE07B681B68DA6867
:1025DC007B681B6842F00402DA6014E07B681B68BD
:1025EC00DA687B681B6842F00802DA600BE07B68F3
:1025FC001B68DA687B681B6842F01002DA6002E044
:10260C000123FB7300BFFB7B002B34D17B681B6861
:10261C0001223968184600F0F2FD7B681B68184AE5
:10262C0093420ED07B681B68B3F1804F09D07B6856
:10263C001B68144A934204D07B681B68124A93426D
:10264C0011D17B681B689B6803F00703BB60BB68F8
:10265C00062B10D07B681B681A687B681B6842F0DD
:10266C0001021A6007E07B681B681A687B681B68AC
:10267C0042F001021A60FB7B18461037BD4680BD44
:10268C00002C0140000400400008004080B584B0DC
:10269C0000AF78607B681B68DB68FB607B681B683D
:1026AC001B69BB60BB6803F00203002B20D0FB68E6
:1026BC0003F00203002B1BD07B681B686FF0020237
:1026CC001A617B6801221A777B681B689B6903F08F
:1026DC000303002B03D07868FEF77AFB05E07868DB
:1026EC0000F06FFA786800F075FA7B6800221A77B0
:1026FC00BB6803F00403002B20D0FB6803F0040339
:10270C00002B1BD07B681B686FF004021A617B687E
:10271C0002221A777B681B689B6903F44073002BB9
:10272C0003D07868FEF754FB05E0786800F049FAAE
:10273C00786800F04FFA7B6800221A77BB6803F0C8
:10274C000803002B20D0FB6803F00803002B1BD0E0
:10275C007B681B686FF008021A617B6804221A7789
:10276C007B681B68DB6903F00303002B03D07868DC
:10277C00FEF72EFB05E0786800F023FA786800F08D
:10278C0029FA7B6800221A77BB6803F01003002B30
:10279C0020D0FB6803F01003002B1BD07B681B6858
:1027AC006FF010021A617B6808221A777B681B682D
:1027BC00DB6903F44073002B03D07868FEF708FB49
:1027CC0005E0786800F0FDF9786800F003FA7B68A2
:1027DC0000221A77BB6803F00103002B0CD0FB68B6
:1027EC0003F00103002B07D07B681B686FF001021C
:1027FC001A61786800F0DCF9BB6803F08003002BE9
:10280C000CD0FB6803F08003002B07D07B681B689F
:10281C006FF080021A61786800F07DFDBB6803F0F0
:10282C004003002B0CD0FB6803F04003002B07D0B7
:10283C007B681B686FF040021A61786800F0D3F96E
:10284C00BB6803F02003002B0CD0FB6803F02003C3
:10285C00002B07D07B681B686FF020021A61786828
:10286C0000F050FD00BF1037BD4680BD80B586B06E
:10287C0000AFF860B9607A600023FB75FB6893F8D1
:10288C003C30012B01D1022388E0FB68012283F844
:10289C003C207B68002B1BD1FB681868BB6819684F
:1028AC00BB685A68BB68DB6800F09CFBFB681B6864
:1028BC009A69FB681B6822F00C029A61FB681B6822
:1028CC009969BB689A68FB681B680A439A6160E067
:1028DC007B68042B1CD1FB681868BB681968BB6843
:1028EC005A68BB68DB6800F0D7FBFB681B689A6909
:1028FC00FB681B6822F440629A61FB681B6899694B
:10290C00BB689B681A02FB681B680A439A6140E02B
:10291C007B68082B1BD1FB681868BB681968BB68FF
:10292C005A68BB68DB6800F0F3FBFB681B68DA696C
:10293C00FB681B6822F00C02DA61FB681B68D96922
:10294C00BB689A68FB681B680A43DA6121E07B6804
:10295C000C2B1CD1FB681868BB681968BB685A68DB
:10296C00BB68DB6800F00FFCFB681B68DA69FB686E
:10297C001B6822F44062DA61FB681B68D969BB688A
:10298C009B681A02FB681B680A43DA6101E00123A9
:10299C00FB75FB68002283F83C20FB7D184618373A
:1029AC00BD4680BD80B586B000AFF860B9607A6076
:1029BC000023FB75FB6893F83C30012B01D10223FB
:1029CC00AEE0FB68012283F83C207B680C2B00F204
:1029DC009F8001A252F823F0192A00081D2B000831
:1029EC001D2B00081D2B0008592A00081D2B000860
:1029FC001D2B00081D2B00089B2A00081D2B00080E
:102A0C001D2B00081D2B0008DB2A0008FB681B6827
:102A1C00B968184600F05EF9FB681B689A69FB6898
:102A2C001B6842F008029A61FB681B689A69FB6894
:102A3C001B6822F004029A61FB681B689969BB68E9
:102A4C001A69FB681B680A439A6164E0FB681B689F
:102A5C00B968184600F0A4F9FB681B689A69FB6812
:102A6C001B6842F400629A61FB681B689A69FB68F8
:102A7C001B6822F480629A61FB681B689969BB68C9
:102A8C001B691A02FB681B680A439A6143E0FB68E6
:102A9C001B68B968184600F0EDF9FB681B68DA6929
:102AAC00FB681B6842F00802DA61FB681B68DA6994
:102ABC00FB681B6822F00402DA61FB681B68D969A9
:102ACC00BB681A69FB681B680A43DA6123E0FB6880
:102ADC001B68B968184600F037FAFB681B68DA699E
:102AEC00FB681B6842F40062DA61FB681B68DA69F8
:102AFC00FB681B6822F48062DA61FB681B68D96989
:102B0C00BB681B691A02FB681B680A43DA6102E0A6
:102B1C000123FB7500BFFB68002283F83C20FB7D82
:102B2C0018461837BD4680BD80B485B000AF7860BC
:102B3C0039600023FB603B680C2B31D801A252F8A2
:102B4C0023F000BF852B0008AD2B0008AD2B00082F
:102B5C00AD2B00088F2B0008AD2B0008AD2B000807
:102B6C00AD2B0008992B0008AD2B0008AD2B0008ED
:102B7C00AD2B0008A32B00087B681B685B6BFB600C
:102B8C000FE07B681B689B6BFB600AE07B681B6833
:102B9C00DB6BFB6005E07B681B681B6CFB6000E07B
:102BAC0000BFFB6818461437BD4680BC704700BF99
:102BBC0080B483B000AF786000BF0C37BD4680BCDA
:102BCC00704780B483B000AF786000BF0C37BD464F
:102BDC0080BC704780B483B000AF786000BF0C3706
:102BEC00BD4680BC704780B483B000AF786000BF36
:102BFC000C37BD4680BC704780B485B000AF7860A0
:102C0C0039607B681B68FB607B682F4A93420BD052
:102C1C007B68B3F1804F07D07B682C4A934203D07A
:102C2C007B682B4A934208D1FB6823F07003FB604E
:102C3C003B685B68FA681343FB607B68224A9342EB
:102C4C000BD07B68B3F1804F07D07B681F4A93424F
:102C5C0003D07B681E4A934208D1FB6823F440736F
:102C6C00FB603B68DB68FA681343FB60FB6823F08E
:102C7C0080023B685B691343FB607B68FA681A60EF
:102C8C003B689A687B68DA623B681A687B689A6270
:102C9C007B680D4A934203D13B681A697B681A63BF
:102CAC007B6801225A617B681B6903F00103002BCE
:102CBC0005D07B681B6923F001027B681A6100BF99
:102CCC001437BD4680BC7047002C01400004004006
:102CDC000008004080B487B000AF786039607B6832
:102CEC001B6A7B617B681B6A23F001027B681A629A
:102CFC007B685B683B617B689B69FB60FB6823F0CE
:102D0C007003FB60FB6823F00303FB603B681B68EC
:102D1C00FA681343FB607B6923F002037B613B6819
:102D2C009B687A6913437B617B681C4A93420CD184
:102D3C007B6923F008037B613B68DB687A6913438A
:102D4C007B617B6923F004037B617B68134A9342AC
:102D5C0011D13B6923F480733B613B6923F400730D
:102D6C003B613B685B693A6913433B613B689B6918
:102D7C003A6913433B617B683A695A607B68FA682D
:102D8C009A613B685A687B685A637B687A691A62F5
:102D9C0000BF1C37BD4680BC704700BF002C0140F3
:102DAC0080B487B000AF786039607B681B6A7B6148
:102DBC007B681B6A23F010027B681A627B685B6875
:102DCC003B617B689B69FB60FB6823F4E043FB6021
:102DDC00FB6823F44073FB603B681B681B02FA68BA
:102DEC001343FB607B6923F020037B613B689B688A
:102DFC001B017A6913437B617B681D4A93420DD199
:102E0C007B6923F080037B613B68DB681B017A697B
:102E1C0013437B617B6923F040037B617B68144A1D
:102E2C00934213D13B6923F480633B613B6923F4E8
:102E3C0000633B613B685B699B003A6913433B61F0
:102E4C003B689B699B003A6913433B617B683A6919
:102E5C005A607B68FA689A613B685A687B689A6327
:102E6C007B687A691A6200BF1C37BD4680BC70470C
:102E7C00002C014080B487B000AF786039607B686B
:102E8C001B6A7B617B681B6A23F480727B681A6205
:102E9C007B685B683B617B68DB69FB60FB6823F0EC
:102EAC007003FB60FB6823F00303FB603B681B684B
:102EBC00FA681343FB607B6923F400737B613B6806
:102ECC009B681B027A6913437B617B681D4A9342A2
:102EDC000DD17B6923F400637B613B68DB681B02CB
:102EEC007A6913437B617B6923F480637B617B6824
:102EFC00144A934213D13B6923F480533B613B69E1
:102F0C0023F400533B613B685B691B013A69134333
:102F1C003B613B689B691B013A6913433B617B68CE
:102F2C003A695A607B68FA68DA613B685A687B6870
:102F3C00DA637B687A691A6200BF1C37BD4680BCB5
:102F4C00704700BF002C014080B487B000AF7860A0
:102F5C0039607B681B6A3B617B681B6A23F4805277
:102F6C007B681A627B685B687B617B68DB69FB60F2
:102F7C00FB6823F4E043FB60FB6823F44073FB60C5
:102F8C003B681B681B02FA681343FB603B6923F424
:102F9C0000533B613B689B681B033A6913433B61DD
:102FAC007B680F4A934209D17B6923F480437B6190
:102FBC003B685B699B017A6913437B617B687A6927
:102FCC005A607B68FA68DA613B685A687B681A64F5
:102FDC007B683A691A6200BF1C37BD4680BC7047DB
:102FEC00002C014080B487B000AFF860B9607A6003
:102FFC003B60FB681B6A3B61FB681B6A23F00102A8
:10300C00FB681A62FB689B697B61FB681F4A9342F1
:10301C000BD0FB68B3F1804F07D0FB681C4A93427E
:10302C0003D0FB681B4A934201D1012300E000232B
:10303C00002B08D07B6923F003037B617A697B68E2
:10304C0013437B6103E07B6943F001037B617B6984
:10305C0023F0F0037B613B681B01DBB27A691343FD
:10306C007B613B6923F00A033B61BB6803F00A03F5
:10307C003A6913433B61FB687A699A61FB683A6968
:10308C001A6200BF1C37BD4680BC7047002C014043
:10309C00000400400008004080B487B000AFF86026
:1030AC00B9607A603B60FB681B6A7B61FB681B6ADA
:1030BC0023F01002FB681A62FB689B693B613B6959
:1030CC0023F440733B617B681B023A6913433B61F9
:1030DC003B6923F470433B613B681B039BB23A6929
:1030EC0013433B617B6923F0A0037B61BB681B012D
:1030FC0003F0A0037A6913437B61FB683A699A6118
:10310C00FB687A691A6200BF1C37BD4680BC7047E9
:10311C0080B487B000AFF860B9607A603B60FB6840
:10312C001B6A7B61FB681B6A23F48072FB681A6262
:10313C00FB68DB693B613B6923F003033B613A6944
:10314C007B6813433B613B6923F0F0033B613B68B5
:10315C001B01DBB23A6913433B617B6923F40073B7
:10316C007B61BB681B0203F400737A6913437B61B8
:10317C00FB683A69DA61FB687A691A6200BF1C372E
:10318C00BD4680BC704780B487B000AFF860B960B2
:10319C007A603B60FB681B6A7B61FB681B6A23F4EB
:1031AC008052FB681A62FB68DB693B613B6923F464
:1031BC0040733B617B681B023A6913433B613B697B
:1031CC0023F470433B613B681B039BB23A69134386
:1031DC003B617B6923F400537B61BB681B0303F4E5
:1031EC0000537A6913437B61FB683A69DA61FB68C7
:1031FC007A691A6200BF1C37BD4680BC704780B428
:10320C0087B000AFF860B9607A60BB6803F01F0349
:10321C00012202FA03F37B61FB681A6A7B69DB43C8
:10322C001A40FB681A62FB681A6ABB6803F01F033A
:10323C00796801FA03F31A43FB681A6200BF1C3762
:10324C00BD4680BC7047000080B485B000AF78608C
:10325C0039607B6893F83C30012B01D1022346E0A6
:10326C007B68012283F83C207B68022283F83D2096
:10327C007B681B685B68FB607B681B689B68BB603A
:10328C00FB6823F07003FB603B681B68FA68134310
:10329C00FB607B681B68FA685A607B681B68164A7F
:1032AC0093420ED07B681B68B3F1804F09D07B68CA
:1032BC001B68124A934204D07B681B68104A9342E5
:1032CC000CD1BB6823F08003BB603B685B68BA68B9
:1032DC001343BB607B681B68BA689A607B680122E9
:1032EC0083F83D207B68002283F83C20002318469D
:1032FC001437BD4680BC7047002C014000040040D0
:10330C000008004080B483B000AF786000BF0C3779
:10331C00BD4680BC704780B483B000AF786000BFFE
:10332C000C37BD4680BC704780B582B000AF78606A
:10333C007B68002B01D1012342E07B6893F841307C
:10334C00DBB2002B06D17B68002283F84020786822
:10335C00FDF7FAFD7B68242283F841207B681B680B
:10336C00DA687B681B6822F40052DA60786800F037
:10337C00B7FD7B681B681A697B681B6822F4904256
:10338C001A617B681B685A697B681B6822F02A02E9
:10339C005A617B681B68DA687B681B6842F40052D0
:1033AC00DA607B6800225A647B68202283F8412013
:1033BC007B68202283F842207B6800225A6300231A
:1033CC0018460837BD4680BD80B58AB002AFF8609C
:1033DC00B9603B601346FB8000237B61FB6893F86C
:1033EC004130DBB2202B75D1BB68002B02D0FB889F
:1033FC00002B01D101236EE0FB6800225A64FB68AC
:10340C00212283F84120FDF707FF7861FB68FA88D9
:10341C009A84FB68FA88DA84FB689B68B3F5805F52
:10342C0008D1FB681B69002B04D10023FB61BB682E
:10343C00BB6103E0BB68FB610023BB612EE03B6812
:10344C0000937B6900228021F86800F01CFB034686
:10345C00002B05D0FB68202283F8412003233AE09F
:10346C00FB69002B0BD1BB691B881A46FB681B68D8
:10347C00C2F308025A60BB690233BB6107E0FB6907
:10348C001A78FB681B685A60FB690133FB61FB68A7
:10349C00DB8C9BB2013B9AB2FB68DA84FB68DB8C59
:1034AC009BB2002BCBD13B6800937B69002240215F
:1034BC00F86800F0E8FA0346002B05D0FB682022E0
:1034CC0083F84120032306E0FB68202283F8412087
:1034DC00002300E0022318462037BD4680BD80B58E
:1034EC0084B000AFF860B9601346FB80FB6893F8BA
:1034FC004230DBB2202B12D1BB68002B02D0FB88F0
:10350C00002B01D101230BE0FB6800221A63FB881E
:10351C001A46B968F86800F00FFB034600E0022376
:10352C0018461037BD4680BD80B5BAB000AF786084
:10353C007B681B681B68C7F8E4307B681B68DB681A
:10354C00C7F8E0307B681B685B69C7F8DC30002388
:10355C00C7F8D8300023C7F8D430D7F8E43003F0DC
:10356C000F03C7F8D830D7F8D830002B0FD1D7F8C5
:10357C00E43003F02003002B09D0D7F8E03003F03F
:10358C002003002B03D0786800F0ECFB5BE2D7F84B
:10359C00D830002B00F0DE80D7F8DC3003F00103CC
:1035AC00002B06D1D7F8E03003F49073002B00F019
:1035BC00D180D7F8E43003F00103002B0BD0D7F8FF
:1035CC00E03003F48073002B05D07B685B6C43F018
:1035DC0001027B685A64D7F8E43003F00403002B33
:1035EC000BD0D7F8DC3003F00103002B05D07B683F
:1035FC005B6C43F002027B685A64D7F8E43003F04A
:10360C000203002B0BD0D7F8DC3003F00103002BA6
:10361C0005D07B685B6C43F004027B685A64D7F876
:10362C00E43003F00803002B11D0D7F8E03003F09E
:10363C002003002B05D1D7F8DC3003F00103002B5D
:10364C0005D07B685B6C43F008027B685A647B682E
:10365C005B6C002B00F0F281D7F8E43003F0200310
:10366C00002B08D0D7F8E03003F02003002B02D059
:10367C00786800F077FB7B681B685B6903F040039C
:10368C00002B14BF01230023DBB2C7F8D4307B68B6
:10369C005B6C03F00803002B03D1D7F8D430002B5C
:1036AC004FD0786800F081FA7B681B685B6903F087
:1036BC004003002B41D07B681B681433C7F89C3047
:1036CC00D7F89C3053E8003FC7F89830D7F89830BB
:1036DC0023F04003C7F8D0307B681B681433D7F84D
:1036EC00D020C7F8A820C7F8A430D7F8A410D7F872
:1036FC00A82041E80023C7F8A030D7F8A030002B51
:10370C00D9D17B68DB6B002B13D07B68DB6B7E4ADB
:10371C005A637B68DB6B1846FDF7F4FE0346002BFF
:10372C0016D07B68DB6B5B6B7A68D26B1046984764
:10373C000EE0786800F093F90AE0786800F08FF9F1
:10374C0006E0786800F08BF97B6800225A6475E11A
:10375C0000BF73E17B681B6B012B40F04F81D7F8E6
:10376C00E43003F01003002B00F04881D7F8E03070
:10377C0003F01003002B00F041810023BB607B6839
:10378C001B681B68BB607B681B685B68BB60BB68A5
:10379C007B681B685B6903F04003002B00F0B6806C
:1037AC007B68DB6B1B685B68A7F8BE30B7F8BE3074
:1037BC00002B00F045817B689B8DB7F8BE209A42A8
:1037CC0080F03E817B68B7F8BE20DA857B68DB6BC6
:1037DC009B69202B00F088807B681B680C33C7F832
:1037EC008830D7F8883053E8003FC7F88430D7F8D2
:1037FC00843023F48073C7F8B8307B681B680C33B3
:10380C00D7F8B820C7F89420C7F89030D7F89010A4
:10381C00D7F8942041E80023C7F88C30D7F88C30C7
:10382C00002BD9D17B681B6814337B677B6F53E803
:10383C00003F3B673B6F23F00103C7F8B4307B6854
:10384C001B681433D7F8B420C7F88020FB67F96FD6
:10385C00D7F8802041E80023BB67BB6F002BE1D178
:10386C007B681B6814333B663B6E53E8003FFB657B
:10387C00FB6D23F04003C7F8B0307B681B68143332
:10388C00D7F8B020FA66BB66B96EFA6E41E8002331
:10389C007B667B6E002BE3D17B68202283F8422071
:1038AC007B6800221A637B681B680C33FB64FB6C1F
:1038BC0053E8003FBB64BB6C23F01003C7F8AC307B
:1038CC007B681B680C33D7F8AC20BA657B65796DC7
:1038DC00BA6D41E800233B653B6D002BE3D17B685F
:1038EC00DB6B1846FDF7D3FD7B6802225A637B68BD
:1038FC009A8D7B68DB8D9BB2D31A9BB21946786884
:10390C0000F0B6F89CE000BF7B3C00087B689A8D09
:10391C007B68DB8D9BB2D31AA7F8CE307B68DB8D2E
:10392C009BB2002B00F08E80B7F8CE30002B00F04D
:10393C0089807B681B680C33BB63BB6B53E8003F0F
:10394C007B637B6B23F49073C7F8C8307B681B6870
:10395C000C33D7F8C8207A643B64396C7A6C41E834
:10396C000023FB63FB6B002BE3D17B681B681433D8
:10397C007B627B6A53E8003F3B623B6A23F00103A6
:10398C00C7F8C4307B681B681433D7F8C4203A637B
:10399C00FB62F96A3A6B41E80023BB62BB6A002BFD
:1039AC00E3D17B68202283F842207B6800221A63D3
:1039BC007B681B680C333B613B6953E8003FFB6041
:1039CC00FB6823F01003C7F8C0307B681B680C330E
:1039DC00D7F8C020FA61BB61B969FA6941E80023E4
:1039EC007B617B69002BE3D17B6802225A63B7F8B9
:1039FC00CE301946786800F03BF823E0D7F8E43075
:103A0C0003F08003002B09D0D7F8E03003F08003DB
:103A1C00002B03D0786800F03EF914E0D7F8E430BE
:103A2C0003F04003002B0ED0D7F8E03003F0400336
:103A3C00002B08D0786800F07DF904E000BF02E0AC
:103A4C0000BF00E000BFE837BD4680BD80B483B046
:103A5C0000AF786000BF0C37BD4680BC704780B4A7
:103A6C0083B000AF786000BF0C37BD4680BC704798
:103A7C0080B483B000AF78600B467B8000BF0C37FE
:103A8C00BD4680BC704780B586B000AFF860B960A9
:103A9C003B601346FB713BE03B6AB3F1FF3F37D011
:103AAC00FDF7BAFB02463B68D31A3A6A9A4202D334
:103ABC003B6A002B01D103233AE0FB681B68DB68EF
:103ACC0003F00403002B23D0BB68802B20D0BB68F1
:103ADC00402B1DD0FB681B681B6803F00803082BE8
:103AEC0016D100237B61FB681B681B687B61FB683C
:103AFC001B685B687B617B69F86800F056F8FB68B3
:103B0C0008225A64FB68002283F8402001230FE04E
:103B1C00FB681B681A68BB681340BA689A420CBFF2
:103B2C0001230023DBB21A46FB799A42B4D000235E
:103B3C0018461837BD4680BD80B485B000AFF8601C
:103B4C00B9601346FB80FB68BA689A62FB68FA8816
:103B5C009A85FB68FA88DA85FB6800225A64FB6850
:103B6C00222283F84220FB681B69002B07D0FB68DC
:103B7C001B68DA68FB681B6842F48072DA60FB68C9
:103B8C001B685A69FB681B6842F001025A61FB68AA
:103B9C001B68DA68FB681B6842F02002DA600023BD
:103BAC0018461437BD4680BC704780B495B000AF42
:103BBC0078607B681B680C337B637B6B53E8003F3E
:103BCC003B633B6B23F49073FB647B681B680C3387
:103BDC00FA6C3A64FB63F96B3A6C41E80023BB6303
:103BEC00BB6B002BE5D17B681B6814333B623B6AD3
:103BFC0053E8003FFB61FB6923F00103BB647B6866
:103C0C001B681433BA6CFA62BB62B96AFA6A41E88F
:103C1C0000237B627B6A002BE5D17B681B6B012B3D
:103C2C0019D17B681B680C33FB60FB6853E8003FC1
:103C3C00BB60BB6823F010037B647B681B680C3390
:103C4C007A6CBA617B617969BA6941E800233B619E
:103C5C003B69002BE5D17B68202283F842207B68EE
:103C6C0000221A6300BF5437BD4680BC704780B534
:103C7C0084B000AF78607B685B6AFB60FB680022F5
:103C8C00DA85FB680022DA84F868FFF7E8FE00BFEB
:103C9C001037BD4680BD80B485B000AF78607B68BE
:103CAC0093F84130DBB2212B3ED17B689B68B3F596
:103CBC00805F14D17B681B69002B10D17B681B6A59
:103CCC00FB60FB681B881A467B681B68C2F3080202
:103CDC005A607B681B6A9A1C7B681A6208E07B68D6
:103CEC001B6A591C7A6811621A787B681B685A60C7
:103CFC007B68DB8C9BB2013B9BB27A681946D18402
:103D0C00002B0FD17B681B68DA687B681B6822F07C
:103D1C008002DA607B681B68DA687B681B6842F09B
:103D2C004002DA60002300E0022318461437BD4637
:103D3C0080BC704780B582B000AF78607B681B6830
:103D4C00DA687B681B6822F04002DA607B6820220C
:103D5C0083F841207868FFF779FE0023184608376E
:103D6C00BD4680BD80B58CB000AF78607B6893F8A1
:103D7C004230DBB2222B40F0AE807B689B68B3F5FF
:103D8C00805F17D17B681B69002B13D10023FB626A
:103D9C007B689B6ABB627B681B685B689BB2C3F3E6
:103DAC0008039AB2BB6A1A807B689B6A9A1C7B6870
:103DBC009A6226E07B689B6AFB620023BB627B688D
:103DCC009B68B3F5805F07D07B689B68002B0AD19A
:103DDC007B681B69002B06D17B681B685B68DAB2B9
:103DEC00FB6A1A7008E07B681B685B68DBB203F047
:103DFC007F03DAB2FB6A1A707B689B6A5A1C7B6879
:103E0C009A627B68DB8D9BB2013B9BB27A68194648
:103E1C00D185002B5DD17B681B68DA687B681B68D9
:103E2C0022F02002DA607B681B68DA687B681B680A
:103E3C0022F48072DA607B681B685A697B681B68A5
:103E4C0022F001025A617B68202283F842207B68B1
:103E5C0000225A637B681B6B012B35D17B680022D7
:103E6C001A637B681B680C337B617B6953E8003FEA
:103E7C003B613B6923F010037B627B681B680C334E
:103E8C007A6A3A62FB61F9693A6A41E80023BB61DC
:103E9C00BB69002BE5D17B681B681B6803F0100322
:103EAC00102B0AD10023FB607B681B681B68FB602E
:103EBC007B681B685B68FB60FB687B689B8D1946A5
:103ECC007868FFF7D5FD02E07868FDF791F80023DC
:103EDC0002E0002300E0022318463037BD4680BDC7
:103EEC0080B584B000AF78607B681B681B6923F4D5
:103EFC0040517B68DA687B681B680A431A617B68EF
:103F0C009A687B681B691A437B685B691343BB60C7
:103F1C007B681B68DB6823F4B05323F00C037A68CE
:103F2C001268B9680B43D3607B681B685B6923F428
:103F3C0040717B689A697B681B680A435A617B688D
:103F4C001B682C4A934203D1FEF7CEF8F86002E0CE
:103F5C00FEF7B6F8F860FA6813469B0013449A0013
:103F6C001A447B685B689B00B2FBF3F3224AA2FB0A
:103F7C0003235B091901FA6813469B0013449A004A
:103F8C001A447B685B689B00B2FBF3F21A4BA3FBF1
:103F9C0002035B09642000FB03F3D31A1B013233C9
:103FAC00154AA2FB03235B0903F0F0031944FA68DA
:103FBC0013469B0013449A001A447B685B689B0071
:103FCC00B2FBF3F20C4BA3FB02035B09642000FB76
:103FDC0003F3D31A1B013233074AA2FB03235B09F9
:103FEC0003F00F027B681B680A449A6000BF10370D
:103FFC00BD4680BD003801401F85EB51034602448D
:10400C00934200D1704703F8011BF9E770B5002605
:10401C000C4D0D4C641BA410A64209D100F01AF8EB
:10402C0000260A4D0A4C641BA410A64205D170BD93
:10403C0055F8043B98470136EEE755F8043B984792
:10404C000136F2E7A4400008A4400008A440000890
:10405C00A8400008F8B500BFF8BC08BC9E467047E5
:0C406C00F8B500BFF8BC08BC9E467047C9
:104078000000000000000000010203040607080910
:1040880000000000010203040203040506070809F2
:0C4098000A0B0C0D0E0F101001020000AE
:0440A40031010008DE
:0440A8000D010008FE
:1040AC000000803F0000803F0AD7233CCDCCCC3DA4
:1040BC000100000000127A00100000000100000056
:0400000508001129B5
:00000001FF
